{
  "contractName": "BookContracts",
  "abi": [
    {
      "inputs": [],
      "stateMutability": "nonpayable",
      "type": "constructor"
    },
    {
      "inputs": [],
      "name": "bookCount",
      "outputs": [
        {
          "internalType": "uint256",
          "name": "",
          "type": "uint256"
        }
      ],
      "stateMutability": "view",
      "type": "function",
      "constant": true
    },
    {
      "inputs": [
        {
          "internalType": "uint256",
          "name": "",
          "type": "uint256"
        }
      ],
      "name": "books",
      "outputs": [
        {
          "internalType": "uint256",
          "name": "id",
          "type": "uint256"
        },
        {
          "internalType": "string",
          "name": "title",
          "type": "string"
        },
        {
          "internalType": "string",
          "name": "description",
          "type": "string"
        },
        {
          "internalType": "bool",
          "name": "available",
          "type": "bool"
        },
        {
          "internalType": "uint256",
          "name": "lendAt",
          "type": "uint256"
        }
      ],
      "stateMutability": "view",
      "type": "function",
      "constant": true
    },
    {
      "inputs": [
        {
          "internalType": "string",
          "name": "_title",
          "type": "string"
        },
        {
          "internalType": "string",
          "name": "_description",
          "type": "string"
        }
      ],
      "name": "addBook",
      "outputs": [],
      "stateMutability": "nonpayable",
      "type": "function"
    },
    {
      "inputs": [
        {
          "internalType": "uint256",
          "name": "_id",
          "type": "uint256"
        }
      ],
      "name": "lendBook",
      "outputs": [],
      "stateMutability": "nonpayable",
      "type": "function"
    }
  ],
  "bytecode": "0x6080604052600080553480156200001557600080fd5b50620000926040518060400160405280600881526020017f426f6f6b203078300000000000000000000000000000000000000000000000008152506040518060400160405280601481526020017f426f6f6b203078302062792053616e746961676f0000000000000000000000008152506200009860201b60201c565b62000307565b600080815480929190620000ac9062000254565b91905055506040518060a001604052806000548152602001838152602001828152602001600115158152602001600081525060016000805481526020019081526020016000206000820151816000015560208201518160010190805190602001906200011a9291906200016b565b506040820151816002019080519060200190620001399291906200016b565b5060608201518160030160006101000a81548160ff021916908315150217905550608082015181600401559050505050565b8280546200017990620002d1565b90600052602060002090601f0160209004810192826200019d5760008555620001e9565b82601f10620001b857805160ff1916838001178555620001e9565b82800160010185558215620001e9579182015b82811115620001e8578251825591602001919060010190620001cb565b5b509050620001f89190620001fc565b5090565b5b8082111562000217576000816000905550600101620001fd565b5090565b7f4e487b7100000000000000000000000000000000000000000000000000000000600052601160045260246000fd5b6000819050919050565b600062000261826200024a565b91507fffffffffffffffffffffffffffffffffffffffffffffffffffffffffffffffff8214156200029757620002966200021b565b5b600182019050919050565b7f4e487b7100000000000000000000000000000000000000000000000000000000600052602260045260246000fd5b60006002820490506001821680620002ea57607f821691505b60208210811415620003015762000300620002a2565b5b50919050565b610a2f80620003176000396000f3fe608060405234801561001057600080fd5b506004361061004c5760003560e01c80634fb9aac214610051578063687440461461006d578063b905ad78146100a1578063d8a7233e146100bf575b600080fd5b61006b60048036038101906100669190610607565b6100db565b005b61008760048036038101906100829190610607565b6102f4565b6040516100989594939291906106f7565b60405180910390f35b6100a9610447565b6040516100b69190610758565b60405180910390f35b6100d960048036038101906100d491906108a8565b61044d565b005b6000600160008381526020019081526020016000206040518060a0016040529081600082015481526020016001820180546101159061094f565b80601f01602080910402602001604051908101604052809291908181526020018280546101419061094f565b801561018e5780601f106101635761010080835404028352916020019161018e565b820191906000526020600020905b81548152906001019060200180831161017157829003601f168201915b505050505081526020016002820180546101a79061094f565b80601f01602080910402602001604051908101604052809291908181526020018280546101d39061094f565b80156102205780601f106101f557610100808354040283529160200191610220565b820191906000526020600020905b81548152906001019060200180831161020357829003601f168201915b505050505081526020016003820160009054906101000a900460ff16151515158152602001600482015481525050905042816080018181525050600081606001901515908115158152505080600160008481526020019081526020016000206000820151816000015560208201518160010190805190602001906102a592919061051a565b5060408201518160020190805190602001906102c292919061051a565b5060608201518160030160006101000a81548160ff021916908315150217905550608082015181600401559050505050565b600160205280600052604060002060009150905080600001549080600101805461031d9061094f565b80601f01602080910402602001604051908101604052809291908181526020018280546103499061094f565b80156103965780601f1061036b57610100808354040283529160200191610396565b820191906000526020600020905b81548152906001019060200180831161037957829003601f168201915b5050505050908060020180546103ab9061094f565b80601f01602080910402602001604051908101604052809291908181526020018280546103d79061094f565b80156104245780601f106103f957610100808354040283529160200191610424565b820191906000526020600020905b81548152906001019060200180831161040757829003601f168201915b5050505050908060030160009054906101000a900460ff16908060040154905085565b60005481565b60008081548092919061045f906109b0565b91905055506040518060a001604052806000548152602001838152602001828152602001600115158152602001600081525060016000805481526020019081526020016000206000820151816000015560208201518160010190805190602001906104cb92919061051a565b5060408201518160020190805190602001906104e892919061051a565b5060608201518160030160006101000a81548160ff021916908315150217905550608082015181600401559050505050565b8280546105269061094f565b90600052602060002090601f016020900481019282610548576000855561058f565b82601f1061056157805160ff191683800117855561058f565b8280016001018555821561058f579182015b8281111561058e578251825591602001919060010190610573565b5b50905061059c91906105a0565b5090565b5b808211156105b95760008160009055506001016105a1565b5090565b6000604051905090565b600080fd5b600080fd5b6000819050919050565b6105e4816105d1565b81146105ef57600080fd5b50565b600081359050610601816105db565b92915050565b60006020828403121561061d5761061c6105c7565b5b600061062b848285016105f2565b91505092915050565b61063d816105d1565b82525050565b600081519050919050565b600082825260208201905092915050565b60005b8381101561067d578082015181840152602081019050610662565b8381111561068c576000848401525b50505050565b6000601f19601f8301169050919050565b60006106ae82610643565b6106b8818561064e565b93506106c881856020860161065f565b6106d181610692565b840191505092915050565b60008115159050919050565b6106f1816106dc565b82525050565b600060a08201905061070c6000830188610634565b818103602083015261071e81876106a3565b9050818103604083015261073281866106a3565b905061074160608301856106e8565b61074e6080830184610634565b9695505050505050565b600060208201905061076d6000830184610634565b92915050565b600080fd5b600080fd5b7f4e487b7100000000000000000000000000000000000000000000000000000000600052604160045260246000fd5b6107b582610692565b810181811067ffffffffffffffff821117156107d4576107d361077d565b5b80604052505050565b60006107e76105bd565b90506107f382826107ac565b919050565b600067ffffffffffffffff8211156108135761081261077d565b5b61081c82610692565b9050602081019050919050565b82818337600083830152505050565b600061084b610846846107f8565b6107dd565b90508281526020810184848401111561086757610866610778565b5b610872848285610829565b509392505050565b600082601f83011261088f5761088e610773565b5b813561089f848260208601610838565b91505092915050565b600080604083850312156108bf576108be6105c7565b5b600083013567ffffffffffffffff8111156108dd576108dc6105cc565b5b6108e98582860161087a565b925050602083013567ffffffffffffffff81111561090a576109096105cc565b5b6109168582860161087a565b9150509250929050565b7f4e487b7100000000000000000000000000000000000000000000000000000000600052602260045260246000fd5b6000600282049050600182168061096757607f821691505b6020821081141561097b5761097a610920565b5b50919050565b7f4e487b7100000000000000000000000000000000000000000000000000000000600052601160045260246000fd5b60006109bb826105d1565b91507fffffffffffffffffffffffffffffffffffffffffffffffffffffffffffffffff8214156109ee576109ed610981565b5b60018201905091905056fea2646970667358221220a025c687fac17b4953402f675b3f1e4a9e9e98779926e01f3266eda926b250f264736f6c634300080b0033",
  "immutableReferences": {},
  "source": "// SPDX-License-Identifier: MIT\r\npragma solidity ^0.8.11;\r\n\r\ncontract BookContracts{\r\n    uint256 public bookCount = 0;\r\n\r\n    //Executes code once the contract is deployed.\r\n\r\n    struct Book{\r\n        uint256 id;\r\n        string title;\r\n        string description;\r\n        bool available;\r\n        uint lendAt;\r\n    }\r\n    mapping (uint => Book) public books;\r\n    \r\n    constructor(){\r\n        addBook(\"Book 0x0\", \"Book 0x0 by Santiago\");\r\n    }\r\n\r\n    function addBook(string memory _title, string memory _description) public{\r\n        bookCount++;\r\n        books[bookCount] = Book(bookCount,_title,_description, true, 0);\r\n    } \r\n\r\n    function lendBook(uint _id) public{\r\n        Book memory _book = books[_id];\r\n        _book.lendAt = block.timestamp;\r\n        _book.available = false;\r\n        books[_id] = _book;\r\n    }\r\n\r\n\r\n}\r\n",
  "sourcePath": "C:\\Santiago\\dApp\\dBook\\contracts\\BookContracts.sol",
  "compiler": {
    "name": "solc",
    "version": "0.8.11+commit.d7f03943.Emscripten.clang"
  },
  "schemaVersion": "3.4.4",
  "updatedAt": "2022-01-19T16:36:59.923Z",
  "networkType": "ethereum",
  "devdoc": {
    "kind": "dev",
    "methods": {},
    "version": 1
  },
  "userdoc": {
    "kind": "user",
    "methods": {},
    "version": 1
  }
}