{
  "contractName": "BookContracts",
  "abi": [
    {
      "inputs": [],
      "stateMutability": "nonpayable",
      "type": "constructor"
    },
    {
      "anonymous": false,
      "inputs": [
        {
          "indexed": false,
          "internalType": "uint256",
          "name": "id",
          "type": "uint256"
        },
        {
          "indexed": false,
          "internalType": "string",
          "name": "title",
          "type": "string"
        },
        {
          "indexed": false,
          "internalType": "string",
          "name": "description",
          "type": "string"
        },
        {
          "indexed": false,
          "internalType": "bool",
          "name": "available",
          "type": "bool"
        },
        {
          "indexed": false,
          "internalType": "uint256",
          "name": "lendAt",
          "type": "uint256"
        }
      ],
      "name": "BookAdded",
      "type": "event"
    },
    {
      "anonymous": false,
      "inputs": [
        {
          "indexed": false,
          "internalType": "uint256",
          "name": "id",
          "type": "uint256"
        }
      ],
      "name": "BookLended",
      "type": "event"
    },
    {
      "inputs": [],
      "name": "bookCount",
      "outputs": [
        {
          "internalType": "uint256",
          "name": "",
          "type": "uint256"
        }
      ],
      "stateMutability": "view",
      "type": "function",
      "constant": true
    },
    {
      "inputs": [
        {
          "internalType": "uint256",
          "name": "",
          "type": "uint256"
        }
      ],
      "name": "books",
      "outputs": [
        {
          "internalType": "uint256",
          "name": "id",
          "type": "uint256"
        },
        {
          "internalType": "string",
          "name": "title",
          "type": "string"
        },
        {
          "internalType": "string",
          "name": "description",
          "type": "string"
        },
        {
          "internalType": "bool",
          "name": "available",
          "type": "bool"
        },
        {
          "internalType": "uint256",
          "name": "lendAt",
          "type": "uint256"
        }
      ],
      "stateMutability": "view",
      "type": "function",
      "constant": true
    },
    {
      "inputs": [
        {
          "internalType": "string",
          "name": "_title",
          "type": "string"
        },
        {
          "internalType": "string",
          "name": "_description",
          "type": "string"
        }
      ],
      "name": "addBook",
      "outputs": [],
      "stateMutability": "nonpayable",
      "type": "function"
    },
    {
      "inputs": [
        {
          "internalType": "uint256",
          "name": "_id",
          "type": "uint256"
        }
      ],
      "name": "lendBook",
      "outputs": [],
      "stateMutability": "nonpayable",
      "type": "function"
    }
  ],
  "bytecode": "0x6080604052600080553480156200001557600080fd5b50620000926040518060400160405280600881526020017f426f6f6b203078300000000000000000000000000000000000000000000000008152506040518060400160405280601481526020017f426f6f6b203078302062792053616e746961676f0000000000000000000000008152506200009860201b60201c565b620004d6565b600080815480929190620000ac9062000299565b91905055506040518060a001604052806000548152602001838152602001828152602001600115158152602001600081525060016000805481526020019081526020016000206000820151816000015560208201518160010190805190602001906200011a929190620001b0565b50604082015181600201908051906020019062000139929190620001b0565b5060608201518160030160006101000a81548160ff021916908315150217905550608082015181600401559050507ffb2cb11a0eabe6847da8e894a8be8e467a1338b6b0777bdc6fd71e978c6a8ab4600054838360016000604051620001a495949392919062000406565b60405180910390a15050565b828054620001be90620004a0565b90600052602060002090601f016020900481019282620001e257600085556200022e565b82601f10620001fd57805160ff19168380011785556200022e565b828001600101855582156200022e579182015b828111156200022d57825182559160200191906001019062000210565b5b5090506200023d919062000241565b5090565b5b808211156200025c57600081600090555060010162000242565b5090565b7f4e487b7100000000000000000000000000000000000000000000000000000000600052601160045260246000fd5b6000819050919050565b6000620002a6826200028f565b91507fffffffffffffffffffffffffffffffffffffffffffffffffffffffffffffffff821415620002dc57620002db62000260565b5b600182019050919050565b620002f2816200028f565b82525050565b600081519050919050565b600082825260208201905092915050565b60005b838110156200033457808201518184015260208101905062000317565b8381111562000344576000848401525b50505050565b6000601f19601f8301169050919050565b60006200036882620002f8565b62000374818562000303565b93506200038681856020860162000314565b62000391816200034a565b840191505092915050565b60008115159050919050565b620003b3816200039c565b82525050565b6000819050919050565b6000819050919050565b6000620003ee620003e8620003e284620003b9565b620003c3565b6200028f565b9050919050565b6200040081620003cd565b82525050565b600060a0820190506200041d6000830188620002e7565b81810360208301526200043181876200035b565b905081810360408301526200044781866200035b565b9050620004586060830185620003a8565b620004676080830184620003f5565b9695505050505050565b7f4e487b7100000000000000000000000000000000000000000000000000000000600052602260045260246000fd5b60006002820490506001821680620004b957607f821691505b60208210811415620004d057620004cf62000471565b5b50919050565b610b4f80620004e66000396000f3fe608060405234801561001057600080fd5b506004361061004c5760003560e01c80634fb9aac214610051578063687440461461006d578063b905ad78146100a1578063d8a7233e146100bf575b600080fd5b61006b60048036038101906100669190610681565b6100db565b005b61008760048036038101906100829190610681565b61032b565b604051610098959493929190610771565b60405180910390f35b6100a961047e565b6040516100b691906107d2565b60405180910390f35b6100d960048036038101906100d49190610922565b610484565b005b6000600160008381526020019081526020016000206040518060a001604052908160008201548152602001600182018054610115906109c9565b80601f0160208091040260200160405190810160405280929190818152602001828054610141906109c9565b801561018e5780601f106101635761010080835404028352916020019161018e565b820191906000526020600020905b81548152906001019060200180831161017157829003601f168201915b505050505081526020016002820180546101a7906109c9565b80601f01602080910402602001604051908101604052809291908181526020018280546101d3906109c9565b80156102205780601f106101f557610100808354040283529160200191610220565b820191906000526020600020905b81548152906001019060200180831161020357829003601f168201915b505050505081526020016003820160009054906101000a900460ff16151515158152602001600482015481525050905042816080018181525050600081606001901515908115158152505080600160008481526020019081526020016000206000820151816000015560208201518160010190805190602001906102a5929190610594565b5060408201518160020190805190602001906102c2929190610594565b5060608201518160030160006101000a81548160ff021916908315150217905550608082015181600401559050507f0fcba409915083a493d8f5d696ecd58f058b82987c59d6452aeb41fc011dad0d8260405161031f91906107d2565b60405180910390a15050565b6001602052806000526040600020600091509050806000015490806001018054610354906109c9565b80601f0160208091040260200160405190810160405280929190818152602001828054610380906109c9565b80156103cd5780601f106103a2576101008083540402835291602001916103cd565b820191906000526020600020905b8154815290600101906020018083116103b057829003601f168201915b5050505050908060020180546103e2906109c9565b80601f016020809104026020016040519081016040528092919081815260200182805461040e906109c9565b801561045b5780601f106104305761010080835404028352916020019161045b565b820191906000526020600020905b81548152906001019060200180831161043e57829003601f168201915b5050505050908060030160009054906101000a900460ff16908060040154905085565b60005481565b60008081548092919061049690610a2a565b91905055506040518060a00160405280600054815260200183815260200182815260200160011515815260200160008152506001600080548152602001908152602001600020600082015181600001556020820151816001019080519060200190610502929190610594565b50604082015181600201908051906020019061051f929190610594565b5060608201518160030160006101000a81548160ff021916908315150217905550608082015181600401559050507ffb2cb11a0eabe6847da8e894a8be8e467a1338b6b0777bdc6fd71e978c6a8ab4600054838360016000604051610588959493929190610ab8565b60405180910390a15050565b8280546105a0906109c9565b90600052602060002090601f0160209004810192826105c25760008555610609565b82601f106105db57805160ff1916838001178555610609565b82800160010185558215610609579182015b828111156106085782518255916020019190600101906105ed565b5b509050610616919061061a565b5090565b5b8082111561063357600081600090555060010161061b565b5090565b6000604051905090565b600080fd5b600080fd5b6000819050919050565b61065e8161064b565b811461066957600080fd5b50565b60008135905061067b81610655565b92915050565b60006020828403121561069757610696610641565b5b60006106a58482850161066c565b91505092915050565b6106b78161064b565b82525050565b600081519050919050565b600082825260208201905092915050565b60005b838110156106f75780820151818401526020810190506106dc565b83811115610706576000848401525b50505050565b6000601f19601f8301169050919050565b6000610728826106bd565b61073281856106c8565b93506107428185602086016106d9565b61074b8161070c565b840191505092915050565b60008115159050919050565b61076b81610756565b82525050565b600060a08201905061078660008301886106ae565b8181036020830152610798818761071d565b905081810360408301526107ac818661071d565b90506107bb6060830185610762565b6107c860808301846106ae565b9695505050505050565b60006020820190506107e760008301846106ae565b92915050565b600080fd5b600080fd5b7f4e487b7100000000000000000000000000000000000000000000000000000000600052604160045260246000fd5b61082f8261070c565b810181811067ffffffffffffffff8211171561084e5761084d6107f7565b5b80604052505050565b6000610861610637565b905061086d8282610826565b919050565b600067ffffffffffffffff82111561088d5761088c6107f7565b5b6108968261070c565b9050602081019050919050565b82818337600083830152505050565b60006108c56108c084610872565b610857565b9050828152602081018484840111156108e1576108e06107f2565b5b6108ec8482856108a3565b509392505050565b600082601f830112610909576109086107ed565b5b81356109198482602086016108b2565b91505092915050565b6000806040838503121561093957610938610641565b5b600083013567ffffffffffffffff81111561095757610956610646565b5b610963858286016108f4565b925050602083013567ffffffffffffffff81111561098457610983610646565b5b610990858286016108f4565b9150509250929050565b7f4e487b7100000000000000000000000000000000000000000000000000000000600052602260045260246000fd5b600060028204905060018216806109e157607f821691505b602082108114156109f5576109f461099a565b5b50919050565b7f4e487b7100000000000000000000000000000000000000000000000000000000600052601160045260246000fd5b6000610a358261064b565b91507fffffffffffffffffffffffffffffffffffffffffffffffffffffffffffffffff821415610a6857610a676109fb565b5b600182019050919050565b6000819050919050565b6000819050919050565b6000610aa2610a9d610a9884610a73565b610a7d565b61064b565b9050919050565b610ab281610a87565b82525050565b600060a082019050610acd60008301886106ae565b8181036020830152610adf818761071d565b90508181036040830152610af3818661071d565b9050610b026060830185610762565b610b0f6080830184610aa9565b969550505050505056fea264697066735822122066c883c4013c95f47df723a43f43d07940239ca26f71e7b5c5ede1995396454b64736f6c634300080b0033",
  "immutableReferences": {},
  "source": "// SPDX-License-Identifier: MIT\r\npragma solidity ^0.8.11;\r\n// 1:44\r\ncontract BookContracts{\r\n    uint256 public bookCount = 0;\r\n\r\n    //Executes code once the contract is deployed.\r\n    struct Book{\r\n        uint256 id;\r\n        string title;\r\n        string description;\r\n        bool available;\r\n        uint lendAt;\r\n    }\r\n    mapping (uint256 => Book) public books;\r\n    \r\n    constructor(){\r\n        addBook(\"Book 0x0\", \"Book 0x0 by Santiago\");\r\n    }\r\n\r\n    function addBook(string memory _title, string memory _description) public{\r\n        bookCount++;\r\n        books[bookCount] = Book(bookCount,_title,_description, true, 0);\r\n        emit BookAdded(bookCount,_title,_description, true, 0);\r\n    } \r\n\r\n    function lendBook(uint256 _id) public{\r\n        Book memory _book = books[_id];\r\n        _book.lendAt = block.timestamp;\r\n        _book.available = false;\r\n        books[_id] = _book;\r\n        emit BookLended(_id);\r\n    }\r\n\r\n\r\n    //events - when a book is created retrieve that was created on logs[]\r\n    event BookAdded(\r\n        uint256 id,\r\n        string title,\r\n        string description,\r\n        bool available,\r\n        uint lendAt\r\n    );\r\n\r\n    event BookLended(\r\n        uint256 id\r\n    );\r\n\r\n}\r\n",
  "sourcePath": "C:\\Santiago\\dApp\\dBook\\contracts\\BookContracts.sol",
  "compiler": {
    "name": "solc",
    "version": "0.8.11+commit.d7f03943.Emscripten.clang"
  },
  "schemaVersion": "3.4.4",
  "updatedAt": "2022-01-25T18:04:09.604Z",
  "networkType": "ethereum",
  "devdoc": {
    "kind": "dev",
    "methods": {},
    "version": 1
  },
  "userdoc": {
    "kind": "user",
    "methods": {},
    "version": 1
  }
}